{
  "_format": "hh-sol-artifact-1",
  "contractName": "TronEscrow",
  "sourceName": "contracts/TronEscrow.sol",
  "abi": [
    {
      "inputs": [
        {
          "internalType": "address",
          "name": "_usdtToken",
          "type": "address"
        },
        {
          "internalType": "address",
          "name": "_commissionWallet",
          "type": "address"
        }
      ],
      "stateMutability": "nonpayable",
      "type": "constructor"
    },
    {
      "anonymous": false,
      "inputs": [
        {
          "indexed": true,
          "internalType": "uint256",
          "name": "dealId",
          "type": "uint256"
        },
        {
          "indexed": true,
          "internalType": "address",
          "name": "buyer",
          "type": "address"
        },
        {
          "indexed": true,
          "internalType": "address",
          "name": "seller",
          "type": "address"
        },
        {
          "indexed": false,
          "internalType": "uint256",
          "name": "amount",
          "type": "uint256"
        },
        {
          "indexed": false,
          "internalType": "uint256",
          "name": "deadline",
          "type": "uint256"
        }
      ],
      "name": "DealCreated",
      "type": "event"
    },
    {
      "anonymous": false,
      "inputs": [
        {
          "indexed": true,
          "internalType": "uint256",
          "name": "dealId",
          "type": "uint256"
        },
        {
          "indexed": false,
          "internalType": "string",
          "name": "resolution",
          "type": "string"
        }
      ],
      "name": "DisputeResolved",
      "type": "event"
    },
    {
      "anonymous": false,
      "inputs": [
        {
          "indexed": true,
          "internalType": "uint256",
          "name": "dealId",
          "type": "uint256"
        },
        {
          "indexed": true,
          "internalType": "address",
          "name": "buyer",
          "type": "address"
        },
        {
          "indexed": false,
          "internalType": "uint256",
          "name": "amount",
          "type": "uint256"
        }
      ],
      "name": "FundsRefunded",
      "type": "event"
    },
    {
      "anonymous": false,
      "inputs": [
        {
          "indexed": true,
          "internalType": "uint256",
          "name": "dealId",
          "type": "uint256"
        },
        {
          "indexed": true,
          "internalType": "address",
          "name": "seller",
          "type": "address"
        },
        {
          "indexed": false,
          "internalType": "uint256",
          "name": "amount",
          "type": "uint256"
        }
      ],
      "name": "FundsReleased",
      "type": "event"
    },
    {
      "inputs": [],
      "name": "commissionRate",
      "outputs": [
        {
          "internalType": "uint256",
          "name": "",
          "type": "uint256"
        }
      ],
      "stateMutability": "view",
      "type": "function"
    },
    {
      "inputs": [],
      "name": "commissionWallet",
      "outputs": [
        {
          "internalType": "address",
          "name": "",
          "type": "address"
        }
      ],
      "stateMutability": "view",
      "type": "function"
    },
    {
      "inputs": [
        {
          "internalType": "address",
          "name": "_seller",
          "type": "address"
        },
        {
          "internalType": "uint256",
          "name": "_amount",
          "type": "uint256"
        },
        {
          "internalType": "uint256",
          "name": "_deadline",
          "type": "uint256"
        }
      ],
      "name": "createDeal",
      "outputs": [
        {
          "internalType": "uint256",
          "name": "",
          "type": "uint256"
        }
      ],
      "stateMutability": "nonpayable",
      "type": "function"
    },
    {
      "inputs": [],
      "name": "dealCount",
      "outputs": [
        {
          "internalType": "uint256",
          "name": "",
          "type": "uint256"
        }
      ],
      "stateMutability": "view",
      "type": "function"
    },
    {
      "inputs": [
        {
          "internalType": "uint256",
          "name": "",
          "type": "uint256"
        }
      ],
      "name": "deals",
      "outputs": [
        {
          "internalType": "address",
          "name": "buyer",
          "type": "address"
        },
        {
          "internalType": "address",
          "name": "seller",
          "type": "address"
        },
        {
          "internalType": "uint256",
          "name": "amount",
          "type": "uint256"
        },
        {
          "internalType": "uint256",
          "name": "deadline",
          "type": "uint256"
        },
        {
          "internalType": "bool",
          "name": "isReleased",
          "type": "bool"
        },
        {
          "internalType": "bool",
          "name": "isRefunded",
          "type": "bool"
        }
      ],
      "stateMutability": "view",
      "type": "function"
    },
    {
      "inputs": [],
      "name": "owner",
      "outputs": [
        {
          "internalType": "address",
          "name": "",
          "type": "address"
        }
      ],
      "stateMutability": "view",
      "type": "function"
    },
    {
      "inputs": [
        {
          "internalType": "uint256",
          "name": "dealId",
          "type": "uint256"
        }
      ],
      "name": "refundFunds",
      "outputs": [],
      "stateMutability": "nonpayable",
      "type": "function"
    },
    {
      "inputs": [
        {
          "internalType": "uint256",
          "name": "dealId",
          "type": "uint256"
        }
      ],
      "name": "releaseFunds",
      "outputs": [],
      "stateMutability": "nonpayable",
      "type": "function"
    },
    {
      "inputs": [
        {
          "internalType": "uint256",
          "name": "_rate",
          "type": "uint256"
        }
      ],
      "name": "setCommissionRate",
      "outputs": [],
      "stateMutability": "nonpayable",
      "type": "function"
    },
    {
      "inputs": [],
      "name": "usdtToken",
      "outputs": [
        {
          "internalType": "contract ITRC20",
          "name": "",
          "type": "address"
        }
      ],
      "stateMutability": "view",
      "type": "function"
    }
  ],
  "bytecode": "0x60c0604052606460005534801561001557600080fd5b50604051610d59380380610d598339810160408190526100349161007c565b6001600160a01b039182166080523360a052600180546001600160a01b031916919092161790556100af565b80516001600160a01b038116811461007757600080fd5b919050565b6000806040838503121561008f57600080fd5b61009883610060565b91506100a660208401610060565b90509250929050565b60805160a051610c54610105600039600081816101910152818161024d015281816104a701526105970152600081816101e30152818161039e01528181610710015281816107f4015261095a0152610c546000f3fe608060405234801561001057600080fd5b506004361061009e5760003560e01c80638da5cb5b116100665780638da5cb5b1461018c57806397c0262a146101cb578063a98ad46c146101de578063b02d135114610205578063eadb3c9c1461021857600080fd5b806303988f84146100a357806315f1bbfe1461013a57806319fac8fd1461014f5780634d68282f146101625780635ea1d6f814610175575b600080fd5b6100f96100b1366004610b1a565b6002602081905260009182526040909120805460018201549282015460038301546004909301546001600160a01b039283169490921692909160ff8082169161010090041686565b604080516001600160a01b03978816815296909516602087015293850192909252606084015215156080830152151560a082015260c0015b60405180910390f35b61014d610148366004610b1a565b610221565b005b61014d61015d366004610b1a565b61049c565b61014d610170366004610b1a565b61056b565b61017e60005481565b604051908152602001610131565b6101b37f000000000000000000000000000000000000000000000000000000000000000081565b6040516001600160a01b039091168152602001610131565b6001546101b3906001600160a01b031681565b6101b37f000000000000000000000000000000000000000000000000000000000000000081565b61017e610213366004610b33565b6108f4565b61017e60035481565b600081815260026020526040902080546001600160a01b031633148061026f5750336001600160a01b037f000000000000000000000000000000000000000000000000000000000000000016145b6102af5760405162461bcd60e51b815260206004820152600c60248201526b155b985d5d1a1bdc9a5e995960a21b60448201526064015b60405180910390fd5b600481015460ff161580156102ce57506004810154610100900460ff16155b6103145760405162461bcd60e51b8152602060048201526017602482015276119d5b991cc8185b1c9958591e481c1c9bd8d95cdcd959604a1b60448201526064016102a6565b8060030154421161035f5760405162461bcd60e51b8152602060048201526015602482015274111958591b1a5b99481b9bdd08195e18d959591959605a1b60448201526064016102a6565b6004818101805461ff0019166101001790558154600283015460405163a9059cbb60e01b81526001600160a01b039283169381019390935260248301527f0000000000000000000000000000000000000000000000000000000000000000169063a9059cbb906044016020604051808303816000875af11580156103e7573d6000803e3d6000fd5b505050506040513d601f19601f8201168201806040525081019061040b9190610b74565b6104505760405162461bcd60e51b81526020600482015260166024820152751499599d5b99081d1c985b9cd9995c8819985a5b195960521b60448201526064016102a6565b805460028201546040519081526001600160a01b039091169083907f80b577b4fc190ab86d963549e29f496afd079c5d81a2480d61217d4b5060a28c9060200160405180910390a35050565b336001600160a01b037f0000000000000000000000000000000000000000000000000000000000000000161461051e5760405162461bcd60e51b815260206004820152602160248201527f4f6e6c79206f776e65722063616e2063616c6c20746869732066756e6374696f6044820152603760f91b60648201526084016102a6565b6103e88111156105665760405162461bcd60e51b8152602060048201526013602482015272086dedadad2e6e6d2dedc40e8dede40d0d2ced606b1b60448201526064016102a6565b600055565b600081815260026020526040902080546001600160a01b03163314806105b95750336001600160a01b037f000000000000000000000000000000000000000000000000000000000000000016145b6105f45760405162461bcd60e51b815260206004820152600c60248201526b155b985d5d1a1bdc9a5e995960a21b60448201526064016102a6565b600481015460ff1615801561061357506004810154610100900460ff16155b6106595760405162461bcd60e51b8152602060048201526017602482015276119d5b991cc8185b1c9958591e481c1c9bd8d95cdcd959604a1b60448201526064016102a6565b80600301544211156106a15760405162461bcd60e51b8152602060048201526011602482015270111958591b1a5b9948195e18d959591959607a1b60448201526064016102a6565b60048101805460ff19166001179055600080546002830154612710916106c691610bb3565b6106d09190610bd0565b905060008183600201546106e49190610bf2565b60015460405163a9059cbb60e01b81526001600160a01b039182166004820152602481018590529192507f0000000000000000000000000000000000000000000000000000000000000000169063a9059cbb906044016020604051808303816000875af1158015610759573d6000803e3d6000fd5b505050506040513d601f19601f8201168201806040525081019061077d9190610b74565b6107c95760405162461bcd60e51b815260206004820152601a60248201527f436f6d6d697373696f6e207472616e73666572206661696c656400000000000060448201526064016102a6565b600183015460405163a9059cbb60e01b81526001600160a01b039182166004820152602481018390527f00000000000000000000000000000000000000000000000000000000000000009091169063a9059cbb906044016020604051808303816000875af115801561083f573d6000803e3d6000fd5b505050506040513d601f19601f820116820180604052508101906108639190610b74565b6108a85760405162461bcd60e51b815260206004820152601660248201527514d95b1b195c881d1c985b9cd9995c8819985a5b195960521b60448201526064016102a6565b60018301546040518281526001600160a01b039091169085907f6e3c6096795c8298a218b2cfb8bde42726ff7c9a3d27b4d3ba41ab7f74feb5fb9060200160405180910390a350505050565b60004282116109385760405162461bcd60e51b815260206004820152601060248201526f496e76616c696420646561646c696e6560801b60448201526064016102a6565b6040516323b872dd60e01b8152336004820152306024820152604481018490527f00000000000000000000000000000000000000000000000000000000000000006001600160a01b0316906323b872dd906064016020604051808303816000875af11580156109ab573d6000803e3d6000fd5b505050506040513d601f19601f820116820180604052508101906109cf9190610b74565b610a0d5760405162461bcd60e51b815260206004820152600f60248201526e151c985b9cd9995c8819985a5b1959608a1b60448201526064016102a6565b60038054906000610a1d83610c05565b90915550506040805160c081018252338082526001600160a01b0387811660208085018281528587018a8152606087018a815260006080890181815260a08a018281526003805484526002808952938d90209b518c54908b166001600160a01b0319918216178d55965160018d01805491909b1697169690961790985592519089015551878301555160049096018054945115156101000261ff00199715159790971661ffff1990951694909417959095179092559254845188815291820187905292939192917f584834bba667bf1cd5aa00cfe8042067a3d6b5da7b1a555dc640e003ea7328df910160405180910390a4506003549392505050565b600060208284031215610b2c57600080fd5b5035919050565b600080600060608486031215610b4857600080fd5b83356001600160a01b0381168114610b5f57600080fd5b95602085013595506040909401359392505050565b600060208284031215610b8657600080fd5b81518015158114610b9657600080fd5b9392505050565b634e487b7160e01b600052601160045260246000fd5b8082028115828204841417610bca57610bca610b9d565b92915050565b600082610bed57634e487b7160e01b600052601260045260246000fd5b500490565b81810381811115610bca57610bca610b9d565b600060018201610c1757610c17610b9d565b506001019056fea26469706673582212200bf55b9b780df122c1fb7ce10711f2e70cb626bc2a4f4043dab290eb14135eef64736f6c63430008140033",
  "linkReferences": {},
  "deployedLinkReferences": {}
}