{
  "_format": "hh-sol-artifact-1",
  "contractName": "MTTEscrow",
  "sourceName": "contracts/MTTEscrow.sol",
  "abi": [
    {
      "inputs": [
        {
          "internalType": "address",
          "name": "_commissionWallet",
          "type": "address"
        }
      ],
      "stateMutability": "nonpayable",
      "type": "constructor"
    },
    {
      "inputs": [],
      "name": "DeadlineExceeded",
      "type": "error"
    },
    {
      "inputs": [],
      "name": "DeadlineNotExceeded",
      "type": "error"
    },
    {
      "inputs": [],
      "name": "FundsAlreadyProcessed",
      "type": "error"
    },
    {
      "inputs": [],
      "name": "InsufficientValue",
      "type": "error"
    },
    {
      "inputs": [],
      "name": "InvalidDeadline",
      "type": "error"
    },
    {
      "inputs": [],
      "name": "ReentrancyGuardReentrantCall",
      "type": "error"
    },
    {
      "inputs": [],
      "name": "TransferFailed",
      "type": "error"
    },
    {
      "inputs": [],
      "name": "Unauthorized",
      "type": "error"
    },
    {
      "anonymous": false,
      "inputs": [
        {
          "indexed": true,
          "internalType": "uint256",
          "name": "dealId",
          "type": "uint256"
        },
        {
          "indexed": true,
          "internalType": "address",
          "name": "buyer",
          "type": "address"
        },
        {
          "indexed": true,
          "internalType": "address",
          "name": "seller",
          "type": "address"
        },
        {
          "indexed": false,
          "internalType": "uint256",
          "name": "amount",
          "type": "uint256"
        },
        {
          "indexed": false,
          "internalType": "uint256",
          "name": "deadline",
          "type": "uint256"
        }
      ],
      "name": "DealCreated",
      "type": "event"
    },
    {
      "anonymous": false,
      "inputs": [
        {
          "indexed": true,
          "internalType": "uint256",
          "name": "dealId",
          "type": "uint256"
        },
        {
          "indexed": false,
          "internalType": "string",
          "name": "resolution",
          "type": "string"
        }
      ],
      "name": "DisputeResolved",
      "type": "event"
    },
    {
      "anonymous": false,
      "inputs": [
        {
          "indexed": true,
          "internalType": "uint256",
          "name": "dealId",
          "type": "uint256"
        },
        {
          "indexed": true,
          "internalType": "address",
          "name": "buyer",
          "type": "address"
        },
        {
          "indexed": false,
          "internalType": "uint256",
          "name": "amount",
          "type": "uint256"
        }
      ],
      "name": "FundsRefunded",
      "type": "event"
    },
    {
      "anonymous": false,
      "inputs": [
        {
          "indexed": true,
          "internalType": "uint256",
          "name": "dealId",
          "type": "uint256"
        },
        {
          "indexed": true,
          "internalType": "address",
          "name": "seller",
          "type": "address"
        },
        {
          "indexed": false,
          "internalType": "uint256",
          "name": "amount",
          "type": "uint256"
        }
      ],
      "name": "FundsReleased",
      "type": "event"
    },
    {
      "inputs": [],
      "name": "commissionRate",
      "outputs": [
        {
          "internalType": "uint256",
          "name": "",
          "type": "uint256"
        }
      ],
      "stateMutability": "view",
      "type": "function"
    },
    {
      "inputs": [],
      "name": "commissionWallet",
      "outputs": [
        {
          "internalType": "address",
          "name": "",
          "type": "address"
        }
      ],
      "stateMutability": "view",
      "type": "function"
    },
    {
      "inputs": [
        {
          "internalType": "address",
          "name": "_seller",
          "type": "address"
        },
        {
          "internalType": "uint256",
          "name": "_deadline",
          "type": "uint256"
        }
      ],
      "name": "createDeal",
      "outputs": [
        {
          "internalType": "uint256",
          "name": "",
          "type": "uint256"
        }
      ],
      "stateMutability": "payable",
      "type": "function"
    },
    {
      "inputs": [],
      "name": "dealCount",
      "outputs": [
        {
          "internalType": "uint256",
          "name": "",
          "type": "uint256"
        }
      ],
      "stateMutability": "view",
      "type": "function"
    },
    {
      "inputs": [
        {
          "internalType": "uint256",
          "name": "",
          "type": "uint256"
        }
      ],
      "name": "deals",
      "outputs": [
        {
          "internalType": "address",
          "name": "buyer",
          "type": "address"
        },
        {
          "internalType": "address",
          "name": "seller",
          "type": "address"
        },
        {
          "internalType": "uint256",
          "name": "amount",
          "type": "uint256"
        },
        {
          "internalType": "uint256",
          "name": "deadline",
          "type": "uint256"
        },
        {
          "internalType": "bool",
          "name": "isReleased",
          "type": "bool"
        },
        {
          "internalType": "bool",
          "name": "isRefunded",
          "type": "bool"
        }
      ],
      "stateMutability": "view",
      "type": "function"
    },
    {
      "inputs": [],
      "name": "owner",
      "outputs": [
        {
          "internalType": "address",
          "name": "",
          "type": "address"
        }
      ],
      "stateMutability": "view",
      "type": "function"
    },
    {
      "inputs": [
        {
          "internalType": "uint256",
          "name": "dealId",
          "type": "uint256"
        }
      ],
      "name": "refundFunds",
      "outputs": [],
      "stateMutability": "nonpayable",
      "type": "function"
    },
    {
      "inputs": [
        {
          "internalType": "uint256",
          "name": "dealId",
          "type": "uint256"
        }
      ],
      "name": "releaseFunds",
      "outputs": [],
      "stateMutability": "nonpayable",
      "type": "function"
    },
    {
      "inputs": [
        {
          "internalType": "uint256",
          "name": "dealId",
          "type": "uint256"
        },
        {
          "internalType": "bool",
          "name": "favorSeller",
          "type": "bool"
        }
      ],
      "name": "resolveDispute",
      "outputs": [],
      "stateMutability": "nonpayable",
      "type": "function"
    }
  ],
  "bytecode": "0x60a0604052606460015534801561001557600080fd5b50604051610d02380380610d0283398101604081905261003491610062565b600160005533608052600280546001600160a01b0319166001600160a01b0392909216919091179055610092565b60006020828403121561007457600080fd5b81516001600160a01b038116811461008b57600080fd5b9392505050565b608051610c406100c2600039600081816101c7015281816102800152818161040701526107770152610c406000f3fe6080604052600436106100865760003560e01c80635ea1d6f8116100595780635ea1d6f8146101915780638da5cb5b146101b557806397c0262a14610201578063eadb3c9c14610221578063f4784c2d1461023757600080fd5b806303988f841461008b57806315f1bbfe1461012f57806334b25ee2146101515780634d68282f14610171575b600080fd5b34801561009757600080fd5b506100ee6100a6366004610b22565b6003602081905260009182526040909120805460018201546002830154938301546004909301546001600160a01b039283169492909116929060ff8082169161010090041686565b604080516001600160a01b03978816815296909516602087015293850192909252606084015215156080830152151560a082015260c0015b60405180910390f35b34801561013b57600080fd5b5061014f61014a366004610b22565b61024a565b005b34801561015d57600080fd5b5061014f61016c366004610b3b565b6103fc565b34801561017d57600080fd5b5061014f61018c366004610b22565b610741565b34801561019d57600080fd5b506101a760015481565b604051908152602001610126565b3480156101c157600080fd5b506101e97f000000000000000000000000000000000000000000000000000000000000000081565b6040516001600160a01b039091168152602001610126565b34801561020d57600080fd5b506002546101e9906001600160a01b031681565b34801561022d57600080fd5b506101a760045481565b6101a7610245366004610b70565b6109a0565b610252610af8565b600081815260036020526040902080546001600160a01b031633148015906102a35750336001600160a01b037f00000000000000000000000000000000000000000000000000000000000000001614155b156102c0576040516282b42960e81b815260040160405180910390fd5b600481015460ff16806102dc57506004810154610100900460ff165b156102f95760405162c440f360e21b815260040160405180910390fd5b8060030154421161031d576040516370affcf560e11b815260040160405180910390fd5b60048101805461ff001916610100179055805460028201546040516000926001600160a01b031691908381818185875af1925050503d806000811461037e576040519150601f19603f3d011682016040523d82523d6000602084013e610383565b606091505b50509050806103a5576040516312171d8360e31b815260040160405180910390fd5b815460028301546040519081526001600160a01b039091169084907f80b577b4fc190ab86d963549e29f496afd079c5d81a2480d61217d4b5060a28c9060200160405180910390a350506103f96001600055565b50565b336001600160a01b037f00000000000000000000000000000000000000000000000000000000000000001614610444576040516282b42960e81b815260040160405180910390fd5b61044c610af8565b6000828152600360205260409020600481015460ff168061047657506004810154610100900460ff165b156104935760405162c440f360e21b815260040160405180910390fd5b81156106405760048101805460ff19166001908117909155546002820154600091612710916104c29190610bbe565b6104cc9190610bd5565b905060008183600201546104e09190610bf7565b6002546040519192506000916001600160a01b039091169084908381818185875af1925050503d8060008114610532576040519150601f19603f3d011682016040523d82523d6000602084013e610537565b606091505b5050905080610559576040516312171d8360e31b815260040160405180910390fd5b60018401546040516000916001600160a01b03169084908381818185875af1925050503d80600081146105a8576040519150601f19603f3d011682016040523d82523d6000602084013e6105ad565b606091505b50509050806105cf576040516312171d8360e31b815260040160405180910390fd5b867f831764ac02a33c193cba23a0de34c986e9b50402bf3c9febf6ff2f63d4c0435d60405161062f9060208082526018908201527f46756e64732072656c656173656420746f2073656c6c65720000000000000000604082015260600190565b60405180910390a250505050610732565b60048101805461ff001916610100179055805460028201546040516000926001600160a01b031691908381818185875af1925050503d80600081146106a1576040519150601f19603f3d011682016040523d82523d6000602084013e6106a6565b606091505b50509050806106c8576040516312171d8360e31b815260040160405180910390fd5b837f831764ac02a33c193cba23a0de34c986e9b50402bf3c9febf6ff2f63d4c0435d6040516107289060208082526017908201527f46756e647320726566756e64656420746f206275796572000000000000000000604082015260600190565b60405180910390a2505b5061073d6001600055565b5050565b610749610af8565b600081815260036020526040902080546001600160a01b0316331480159061079a5750336001600160a01b037f00000000000000000000000000000000000000000000000000000000000000001614155b156107b7576040516282b42960e81b815260040160405180910390fd5b600481015460ff16806107d357506004810154610100900460ff165b156107f05760405162c440f360e21b815260040160405180910390fd5b80600301544211156108155760405163559895a360e01b815260040160405180910390fd5b60048101805460ff191660019081179091555460028201546000916127109161083e9190610bbe565b6108489190610bd5565b9050600081836002015461085c9190610bf7565b6002546040519192506000916001600160a01b039091169084908381818185875af1925050503d80600081146108ae576040519150601f19603f3d011682016040523d82523d6000602084013e6108b3565b606091505b50509050806108d5576040516312171d8360e31b815260040160405180910390fd5b60018401546040516000916001600160a01b03169084908381818185875af1925050503d8060008114610924576040519150601f19603f3d011682016040523d82523d6000602084013e610929565b606091505b505090508061094b576040516312171d8360e31b815260040160405180910390fd5b60018501546040518481526001600160a01b039091169087907f6e3c6096795c8298a218b2cfb8bde42726ff7c9a3d27b4d3ba41ab7f74feb5fb9060200160405180910390a350505050506103f96001600055565b60006109aa610af8565b4282116109ca57604051631da7447960e21b815260040160405180910390fd5b346000036109eb5760405163044044a560e21b815260040160405180910390fd5b6004805460019081018083556040805160c081018252338082526001600160a01b03898116602080850182815234868801818152606088018e8152600060808a0181815260a08b018281529c82526003808852918c90209a518b54908a166001600160a01b0319918216178c5595519d8b0180549e9099169d9095169c909c1790965551600288015593519886019890985596519388018054965115156101000261ff00199515159590951661ffff199097169690961793909317909455945482519384529383018790529392917f584834bba667bf1cd5aa00cfe8042067a3d6b5da7b1a555dc640e003ea7328df910160405180910390a450600454610af26001600055565b92915050565b600260005403610b1b57604051633ee5aeb560e01b815260040160405180910390fd5b6002600055565b600060208284031215610b3457600080fd5b5035919050565b60008060408385031215610b4e57600080fd5b8235915060208301358015158114610b6557600080fd5b809150509250929050565b60008060408385031215610b8357600080fd5b82356001600160a01b0381168114610b9a57600080fd5b946020939093013593505050565b634e487b7160e01b600052601160045260246000fd5b8082028115828204841417610af257610af2610ba8565b600082610bf257634e487b7160e01b600052601260045260246000fd5b500490565b81810381811115610af257610af2610ba856fea26469706673582212203d1d0ac59598640265cde8794577da2cdffc4149c78aac79022c6ea7fe17949464736f6c63430008140033",
  "linkReferences": {},
  "deployedLinkReferences": {}
}